{
  "contractName": "ProfitSharing",
  "abi": [
    {
      "constant": false,
      "inputs": [
        {
          "name": "_dividendIndex",
          "type": "uint256"
        }
      ],
      "name": "recycleDividend",
      "outputs": [],
      "payable": false,
      "stateMutability": "nonpayable",
      "type": "function"
    },
    {
      "constant": false,
      "inputs": [],
      "name": "claimDividendAll",
      "outputs": [],
      "payable": false,
      "stateMutability": "nonpayable",
      "type": "function"
    },
    {
      "constant": true,
      "inputs": [],
      "name": "RECYCLE_TIME",
      "outputs": [
        {
          "name": "",
          "type": "uint256"
        }
      ],
      "payable": false,
      "stateMutability": "view",
      "type": "function"
    },
    {
      "constant": true,
      "inputs": [
        {
          "name": "",
          "type": "uint256"
        }
      ],
      "name": "dividends",
      "outputs": [
        {
          "name": "blockNumber",
          "type": "uint256"
        },
        {
          "name": "timestamp",
          "type": "uint256"
        },
        {
          "name": "amount",
          "type": "uint256"
        },
        {
          "name": "claimedAmount",
          "type": "uint256"
        },
        {
          "name": "totalSupply",
          "type": "uint256"
        },
        {
          "name": "recycled",
          "type": "bool"
        }
      ],
      "payable": false,
      "stateMutability": "view",
      "type": "function"
    },
    {
      "constant": true,
      "inputs": [],
      "name": "owner",
      "outputs": [
        {
          "name": "",
          "type": "address"
        }
      ],
      "payable": false,
      "stateMutability": "view",
      "type": "function"
    },
    {
      "constant": false,
      "inputs": [
        {
          "name": "_dividendIndex",
          "type": "uint256"
        }
      ],
      "name": "claimDividend",
      "outputs": [],
      "payable": false,
      "stateMutability": "nonpayable",
      "type": "function"
    },
    {
      "constant": false,
      "inputs": [],
      "name": "depositDividend",
      "outputs": [],
      "payable": true,
      "stateMutability": "payable",
      "type": "function"
    },
    {
      "constant": false,
      "inputs": [
        {
          "name": "newOwner",
          "type": "address"
        }
      ],
      "name": "transferOwnership",
      "outputs": [],
      "payable": false,
      "stateMutability": "nonpayable",
      "type": "function"
    },
    {
      "constant": true,
      "inputs": [],
      "name": "token",
      "outputs": [
        {
          "name": "",
          "type": "address"
        }
      ],
      "payable": false,
      "stateMutability": "view",
      "type": "function"
    },
    {
      "inputs": [
        {
          "name": "_token",
          "type": "address"
        }
      ],
      "payable": false,
      "stateMutability": "nonpayable",
      "type": "constructor"
    },
    {
      "anonymous": false,
      "inputs": [
        {
          "indexed": true,
          "name": "_depositor",
          "type": "address"
        },
        {
          "indexed": false,
          "name": "_blockNumber",
          "type": "uint256"
        },
        {
          "indexed": false,
          "name": "_amount",
          "type": "uint256"
        },
        {
          "indexed": false,
          "name": "_totalSupply",
          "type": "uint256"
        },
        {
          "indexed": false,
          "name": "_dividendIndex",
          "type": "uint256"
        }
      ],
      "name": "DividendDeposited",
      "type": "event"
    },
    {
      "anonymous": false,
      "inputs": [
        {
          "indexed": true,
          "name": "_claimer",
          "type": "address"
        },
        {
          "indexed": false,
          "name": "_dividendIndex",
          "type": "uint256"
        },
        {
          "indexed": false,
          "name": "_claim",
          "type": "uint256"
        }
      ],
      "name": "DividendClaimed",
      "type": "event"
    },
    {
      "anonymous": false,
      "inputs": [
        {
          "indexed": true,
          "name": "_recycler",
          "type": "address"
        },
        {
          "indexed": false,
          "name": "_blockNumber",
          "type": "uint256"
        },
        {
          "indexed": false,
          "name": "_amount",
          "type": "uint256"
        },
        {
          "indexed": false,
          "name": "_totalSupply",
          "type": "uint256"
        },
        {
          "indexed": false,
          "name": "_dividendIndex",
          "type": "uint256"
        }
      ],
      "name": "DividendRecycled",
      "type": "event"
    },
    {
      "anonymous": false,
      "inputs": [
        {
          "indexed": true,
          "name": "previousOwner",
          "type": "address"
        },
        {
          "indexed": true,
          "name": "newOwner",
          "type": "address"
        }
      ],
      "name": "OwnershipTransferred",
      "type": "event"
    }
  ],
  "bytecode": "0x60606040526301e13380600255341561001757600080fd5b6040516020806110d783398101604052808051906020019091905050336000806101000a81548173ffffffffffffffffffffffffffffffffffffffff021916908373ffffffffffffffffffffffffffffffffffffffff16021790555080600160006101000a81548173ffffffffffffffffffffffffffffffffffffffff021916908373ffffffffffffffffffffffffffffffffffffffff16021790555050611013806100c46000396000f300606060405260043610610099576000357c0100000000000000000000000000000000000000000000000000000000900463ffffffff16806322c9427e1461009e57806330e1f16f146100c15780637c1a35d7146100d6578063814b3fe0146100ff5780638da5cb5b1461015d5780639abd3572146101b2578063a289d187146101d5578063f2fde38b146101df578063fc0c546a14610218575b600080fd5b34156100a957600080fd5b6100bf600480803590602001909190505061026d565b005b34156100cc57600080fd5b6100d4610589565b005b34156100e157600080fd5b6100e96106fb565b6040518082815260200191505060405180910390f35b341561010a57600080fd5b6101206004808035906020019091905050610701565b6040518087815260200186815260200185815260200184815260200183815260200182151515158152602001965050505050505060405180910390f35b341561016857600080fd5b610170610759565b604051808273ffffffffffffffffffffffffffffffffffffffff1673ffffffffffffffffffffffffffffffffffffffff16815260200191505060405180910390f35b34156101bd57600080fd5b6101d3600480803590602001909190505061077e565b005b6101dd610b05565b005b34156101ea57600080fd5b610216600480803573ffffffffffffffffffffffffffffffffffffffff16906020019091905050610d52565b005b341561022357600080fd5b61022b610ea7565b604051808273ffffffffffffffffffffffffffffffffffffffff1673ffffffffffffffffffffffffffffffffffffffff16815260200191505060405180910390f35b60008060008060008060009054906101000a900473ffffffffffffffffffffffffffffffffffffffff1673ffffffffffffffffffffffffffffffffffffffff163373ffffffffffffffffffffffffffffffffffffffff161415156102d057600080fd5b85600380549050811015156102e457600080fd5b6003878154811015156102f357fe5b90600052602060002090600702019550600015158660050160009054906101000a900460ff16151514151561032757600080fd5b61033a610332610ecd565b600254610ed5565b866001015410151561034b57600080fd5b600160038881548110151561035c57fe5b906000526020600020906007020160050160006101000a81548160ff021916908315150217905550600160009054906101000a900473ffffffffffffffffffffffffffffffffffffffff1673ffffffffffffffffffffffffffffffffffffffff1663981b24d0436000604051602001526040518263ffffffff167c010000000000000000000000000000000000000000000000000000000002815260040180828152602001915050602060405180830381600087803b151561041d57600080fd5b6102c65a03f1151561042e57600080fd5b50505060405180519050945061044c86600201548760030154610ed5565b93506003805490509250610461436001610ed5565b9150600380548060010182816104779190610f5a565b9160005260206000209060070201600060c0604051908101604052808681526020016104a1610ecd565b815260200188815260200160008152602001898152602001600015158152509091909150600082015181600001556020820151816001015560408201518160020155606082015181600301556080820151816004015560a08201518160050160006101000a81548160ff0219169083151502179055505050503373ffffffffffffffffffffffffffffffffffffffff167f820e5e0bd7a055839c0210e84ddba311de47df61f9c489947f436bcf0f302ff1838688876040518085815260200184815260200183815260200182815260200194505050505060405180910390a250505050505050565b6000600380549050600460003373ffffffffffffffffffffffffffffffffffffffff1673ffffffffffffffffffffffffffffffffffffffff168152602001908152602001600020541015156105dd57600080fd5b600460003373ffffffffffffffffffffffffffffffffffffffff1673ffffffffffffffffffffffffffffffffffffffff1681526020019081526020016000205490505b6003805490508110156106f8576000151560038281548110151561064057fe5b906000526020600020906007020160060160003373ffffffffffffffffffffffffffffffffffffffff1673ffffffffffffffffffffffffffffffffffffffff16815260200190815260200160002060009054906101000a900460ff1615151480156106dc5750600015156003828154811015156106b957fe5b906000526020600020906007020160050160009054906101000a900460ff161515145b156106eb576106ea8161077e565b5b8080600101915050610620565b50565b60025481565b60038181548110151561071057fe5b90600052602060002090600702016000915090508060000154908060010154908060020154908060030154908060040154908060050160009054906101000a900460ff16905086565b6000809054906101000a900473ffffffffffffffffffffffffffffffffffffffff1681565b6000806000836003805490508110151561079757600080fd5b6003858154811015156107a657fe5b90600052602060002090600702019350600015158460060160003373ffffffffffffffffffffffffffffffffffffffff1673ffffffffffffffffffffffffffffffffffffffff16815260200190815260200160002060009054906101000a900460ff16151514151561081757600080fd5b600015158460050160009054906101000a900460ff16151514151561083b57600080fd5b600160009054906101000a900473ffffffffffffffffffffffffffffffffffffffff1673ffffffffffffffffffffffffffffffffffffffff16634ee2cd7e3386600001546000604051602001526040518363ffffffff167c0100000000000000000000000000000000000000000000000000000000028152600401808373ffffffffffffffffffffffffffffffffffffffff1673ffffffffffffffffffffffffffffffffffffffff16815260200182815260200192505050602060405180830381600087803b151561090c57600080fd5b6102c65a03f1151561091d57600080fd5b5050506040518051905092506109568460040154610948866002015486610eee90919063ffffffff16565b610f2190919063ffffffff16565b915060018460060160003373ffffffffffffffffffffffffffffffffffffffff1673ffffffffffffffffffffffffffffffffffffffff16815260200190815260200160002060006101000a81548160ff0219169083151502179055506109c0846003015483610f3c565b84600301819055506000821115610a68573373ffffffffffffffffffffffffffffffffffffffff166108fc839081150290604051600060405180830381858888f193505050501515610a1157600080fd5b3373ffffffffffffffffffffffffffffffffffffffff167fa1c93169468f71ef26f4adf10bca8df21460f11843a01ed9c69da306e33c38478684604051808381526020018281526020019250505060405180910390a25b84600460003373ffffffffffffffffffffffffffffffffffffffff1673ffffffffffffffffffffffffffffffffffffffff168152602001908152602001600020541415610afe57610aba856001610f3c565b600460003373ffffffffffffffffffffffffffffffffffffffff1673ffffffffffffffffffffffffffffffffffffffff168152602001908152602001600020819055505b5050505050565b60008060008060009054906101000a900473ffffffffffffffffffffffffffffffffffffffff1673ffffffffffffffffffffffffffffffffffffffff163373ffffffffffffffffffffffffffffffffffffffff16141515610b6557600080fd5b6003805490509250610b78436001610ed5565b9150600160009054906101000a900473ffffffffffffffffffffffffffffffffffffffff1673ffffffffffffffffffffffffffffffffffffffff1663981b24d0836000604051602001526040518263ffffffff167c010000000000000000000000000000000000000000000000000000000002815260040180828152602001915050602060405180830381600087803b1515610c1357600080fd5b6102c65a03f11515610c2457600080fd5b50505060405180519050905060038054806001018281610c449190610f5a565b9160005260206000209060070201600060c060405190810160405280868152602001610c6e610ecd565b815260200134815260200160008152602001858152602001600015158152509091909150600082015181600001556020820151816001015560408201518160020155606082015181600301556080820151816004015560a08201518160050160006101000a81548160ff0219169083151502179055505050503373ffffffffffffffffffffffffffffffffffffffff167fcbf89ed8b63aa0a8f6e744e4023554f41dc830838d138eb2d4099cbcfe4a0831833484876040518085815260200184815260200183815260200182815260200194505050505060405180910390a2505050565b6000809054906101000a900473ffffffffffffffffffffffffffffffffffffffff1673ffffffffffffffffffffffffffffffffffffffff163373ffffffffffffffffffffffffffffffffffffffff16141515610dad57600080fd5b600073ffffffffffffffffffffffffffffffffffffffff168173ffffffffffffffffffffffffffffffffffffffff1614151515610de957600080fd5b8073ffffffffffffffffffffffffffffffffffffffff166000809054906101000a900473ffffffffffffffffffffffffffffffffffffffff1673ffffffffffffffffffffffffffffffffffffffff167f8be0079c531659141344cd1fd0a4f28419497f9722a3daafe3b4186f6b6457e060405160405180910390a3806000806101000a81548173ffffffffffffffffffffffffffffffffffffffff021916908373ffffffffffffffffffffffffffffffffffffffff16021790555050565b600160009054906101000a900473ffffffffffffffffffffffffffffffffffffffff1681565b600042905090565b6000828211151515610ee357fe5b818303905092915050565b60008082840290506000841480610f0f5750828482811515610f0c57fe5b04145b1515610f1757fe5b8091505092915050565b6000808284811515610f2f57fe5b0490508091505092915050565b6000808284019050838110151515610f5057fe5b8091505092915050565b815481835581811511610f8757600702816007028360005260206000209182019101610f869190610f8c565b5b505050565b610fe491905b80821115610fe05760008082016000905560018201600090556002820160009055600382016000905560048201600090556005820160006101000a81549060ff021916905550600701610f92565b5090565b905600a165627a7a7230582039d589a05ecda426e95c88acaac7b30ecda280a3f67a46ea351007e3adf547c80029",
  "source": "pragma solidity ^0.4.15;\n\nimport './MiniMeToken.sol';\nimport 'zeppelin-solidity/contracts/math/SafeMath.sol';\nimport 'zeppelin-solidity/contracts/ownership/Ownable.sol';\n\ncontract ProfitSharing is Ownable {\n  using SafeMath for uint;\n\n  event DividendDeposited(address indexed _depositor, uint256 _blockNumber, uint256 _amount, uint256 _totalSupply, uint256 _dividendIndex);\n  event DividendClaimed(address indexed _claimer, uint256 _dividendIndex, uint256 _claim);\n  event DividendRecycled(address indexed _recycler, uint256 _blockNumber, uint256 _amount, uint256 _totalSupply, uint256 _dividendIndex);\n\n  MiniMeToken public token;\n\n  uint256 public RECYCLE_TIME = 1 years;\n\n  struct Dividend {\n    uint256 blockNumber;\n    uint256 timestamp;\n    uint256 amount;\n    uint256 claimedAmount;\n    uint256 totalSupply;\n    bool recycled;\n    mapping (address => bool) claimed;\n  }\n\n  Dividend[] public dividends;\n\n  mapping (address => uint256) dividendsClaimed;\n\n  modifier validDividendIndex(uint256 _dividendIndex) {\n    require(_dividendIndex < dividends.length);\n    _;\n  }\n\n  function ProfitSharing(address _token) {\n    token = MiniMeToken(_token);\n  }\n\n  function depositDividend() payable public\n  onlyOwner\n  {\n    uint256 dividendIndex = dividends.length;\n    uint256 blockNumber = SafeMath.sub(block.number, 1);\n    uint256 currentSupply = token.totalSupplyAt(blockNumber);\n    dividends.push(\n      Dividend(\n        blockNumber,\n        getNow(),\n        msg.value,\n        0,\n        currentSupply,\n        false\n      )\n    );\n    DividendDeposited(msg.sender, blockNumber, msg.value, currentSupply, dividendIndex);\n  }\n\n  function claimDividend(uint256 _dividendIndex) public\n  validDividendIndex(_dividendIndex)\n  {\n    Dividend storage dividend = dividends[_dividendIndex];\n    require(dividend.claimed[msg.sender] == false);\n    require(dividend.recycled == false);\n    uint256 balance = token.balanceOfAt(msg.sender, dividend.blockNumber);\n    uint256 claim = balance.mul(dividend.amount).div(dividend.totalSupply);\n    dividend.claimed[msg.sender] = true;\n    dividend.claimedAmount = SafeMath.add(dividend.claimedAmount, claim);\n    if (claim > 0) {\n      msg.sender.transfer(claim);\n      DividendClaimed(msg.sender, _dividendIndex, claim);\n    }\n    if (dividendsClaimed[msg.sender] == _dividendIndex) {\n      dividendsClaimed[msg.sender] = SafeMath.add(_dividendIndex, 1);\n    }\n  }\n\n  function claimDividendAll() public {\n    require(dividendsClaimed[msg.sender] < dividends.length);\n    for (uint i = dividendsClaimed[msg.sender]; i < dividends.length; i++) {\n      if ((dividends[i].claimed[msg.sender] == false) && (dividends[i].recycled == false)) {\n        claimDividend(i);\n      }\n    }\n  }\n\n  function recycleDividend(uint256 _dividendIndex) public\n  onlyOwner\n  validDividendIndex(_dividendIndex)\n  {\n    Dividend storage dividend = dividends[_dividendIndex];\n    require(dividend.recycled == false);\n    require(dividend.timestamp < SafeMath.sub(getNow(), RECYCLE_TIME));\n    dividends[_dividendIndex].recycled = true;\n    uint256 currentSupply = token.totalSupplyAt(block.number);\n    uint256 remainingAmount = SafeMath.sub(dividend.amount, dividend.claimedAmount);\n    uint256 dividendIndex = dividends.length;\n    uint256 blockNumber = SafeMath.sub(block.number, 1);\n    dividends.push(\n      Dividend(\n        blockNumber,\n        getNow(),\n        remainingAmount,\n        0,\n        currentSupply,\n        false\n      )\n    );\n    DividendRecycled(msg.sender, blockNumber, remainingAmount, currentSupply, dividendIndex);\n  }\n\n  //Function is mocked for tests\n  function getNow() internal constant returns (uint256) {\n    return now;\n  }\n\n}\n",
  "sourcePath": "/Users/adamdossa/Development/Ethereum/realland/contracts/ProfitSharing.sol",
  "compiler": {
    "name": "solc",
    "version": "0.4.18+commit.9cf6e910.Emscripten.clang"
  },
  "schemaVersion": "1.0.1",
  "updatedAt": "2017-11-23T17:34:57.419Z"
}