{
  "contractName": "RealLandCrowdSale",
  "abi": [
    {
      "constant": false,
      "inputs": [],
      "name": "allocateTokens",
      "outputs": [],
      "payable": false,
      "stateMutability": "nonpayable",
      "type": "function"
    },
    {
      "constant": true,
      "inputs": [],
      "name": "ipoPlatformPercentage",
      "outputs": [
        {
          "name": "",
          "type": "uint256"
        }
      ],
      "payable": false,
      "stateMutability": "view",
      "type": "function"
    },
    {
      "constant": true,
      "inputs": [],
      "name": "totalSupply",
      "outputs": [
        {
          "name": "",
          "type": "uint256"
        }
      ],
      "payable": false,
      "stateMutability": "view",
      "type": "function"
    },
    {
      "constant": true,
      "inputs": [],
      "name": "saleStartTime",
      "outputs": [
        {
          "name": "",
          "type": "uint256"
        }
      ],
      "payable": false,
      "stateMutability": "view",
      "type": "function"
    },
    {
      "constant": true,
      "inputs": [],
      "name": "marketting",
      "outputs": [
        {
          "name": "",
          "type": "address"
        }
      ],
      "payable": false,
      "stateMutability": "view",
      "type": "function"
    },
    {
      "constant": true,
      "inputs": [],
      "name": "decimals",
      "outputs": [
        {
          "name": "",
          "type": "uint256"
        }
      ],
      "payable": false,
      "stateMutability": "view",
      "type": "function"
    },
    {
      "constant": false,
      "inputs": [
        {
          "name": "_from",
          "type": "address"
        },
        {
          "name": "_to",
          "type": "address"
        },
        {
          "name": "_amount",
          "type": "uint256"
        }
      ],
      "name": "onTransfer",
      "outputs": [
        {
          "name": "",
          "type": "bool"
        }
      ],
      "payable": false,
      "stateMutability": "nonpayable",
      "type": "function"
    },
    {
      "constant": true,
      "inputs": [],
      "name": "tokenContract",
      "outputs": [
        {
          "name": "",
          "type": "address"
        }
      ],
      "payable": false,
      "stateMutability": "view",
      "type": "function"
    },
    {
      "constant": true,
      "inputs": [],
      "name": "tokensAllocated",
      "outputs": [
        {
          "name": "",
          "type": "bool"
        }
      ],
      "payable": false,
      "stateMutability": "view",
      "type": "function"
    },
    {
      "constant": true,
      "inputs": [],
      "name": "bonusPercentage",
      "outputs": [
        {
          "name": "",
          "type": "uint256"
        }
      ],
      "payable": false,
      "stateMutability": "view",
      "type": "function"
    },
    {
      "constant": true,
      "inputs": [],
      "name": "team",
      "outputs": [
        {
          "name": "",
          "type": "address"
        }
      ],
      "payable": false,
      "stateMutability": "view",
      "type": "function"
    },
    {
      "constant": true,
      "inputs": [],
      "name": "PRICE",
      "outputs": [
        {
          "name": "",
          "type": "uint256"
        }
      ],
      "payable": false,
      "stateMutability": "view",
      "type": "function"
    },
    {
      "constant": true,
      "inputs": [],
      "name": "owner",
      "outputs": [
        {
          "name": "",
          "type": "address"
        }
      ],
      "payable": false,
      "stateMutability": "view",
      "type": "function"
    },
    {
      "constant": true,
      "inputs": [],
      "name": "markettingPercentage",
      "outputs": [
        {
          "name": "",
          "type": "uint256"
        }
      ],
      "payable": false,
      "stateMutability": "view",
      "type": "function"
    },
    {
      "constant": true,
      "inputs": [],
      "name": "MIN_PURCHASE",
      "outputs": [
        {
          "name": "",
          "type": "uint256"
        }
      ],
      "payable": false,
      "stateMutability": "view",
      "type": "function"
    },
    {
      "constant": true,
      "inputs": [],
      "name": "teamPercentage",
      "outputs": [
        {
          "name": "",
          "type": "uint256"
        }
      ],
      "payable": false,
      "stateMutability": "view",
      "type": "function"
    },
    {
      "constant": false,
      "inputs": [
        {
          "name": "_owner",
          "type": "address"
        },
        {
          "name": "_spender",
          "type": "address"
        },
        {
          "name": "_amount",
          "type": "uint256"
        }
      ],
      "name": "onApprove",
      "outputs": [
        {
          "name": "",
          "type": "bool"
        }
      ],
      "payable": false,
      "stateMutability": "nonpayable",
      "type": "function"
    },
    {
      "constant": true,
      "inputs": [],
      "name": "ipoPlatform",
      "outputs": [
        {
          "name": "",
          "type": "address"
        }
      ],
      "payable": false,
      "stateMutability": "view",
      "type": "function"
    },
    {
      "constant": true,
      "inputs": [],
      "name": "bonusCap",
      "outputs": [
        {
          "name": "",
          "type": "uint256"
        }
      ],
      "payable": false,
      "stateMutability": "view",
      "type": "function"
    },
    {
      "constant": false,
      "inputs": [
        {
          "name": "_recipient",
          "type": "address"
        }
      ],
      "name": "buyTokens",
      "outputs": [],
      "payable": true,
      "stateMutability": "payable",
      "type": "function"
    },
    {
      "constant": true,
      "inputs": [],
      "name": "saleEndTime",
      "outputs": [
        {
          "name": "",
          "type": "uint256"
        }
      ],
      "payable": false,
      "stateMutability": "view",
      "type": "function"
    },
    {
      "constant": false,
      "inputs": [
        {
          "name": "newOwner",
          "type": "address"
        }
      ],
      "name": "transferOwnership",
      "outputs": [],
      "payable": false,
      "stateMutability": "nonpayable",
      "type": "function"
    },
    {
      "constant": false,
      "inputs": [
        {
          "name": "_owner",
          "type": "address"
        }
      ],
      "name": "proxyPayment",
      "outputs": [
        {
          "name": "",
          "type": "bool"
        }
      ],
      "payable": true,
      "stateMutability": "payable",
      "type": "function"
    },
    {
      "inputs": [
        {
          "name": "_tokenContract",
          "type": "address"
        }
      ],
      "payable": false,
      "stateMutability": "nonpayable",
      "type": "constructor"
    },
    {
      "payable": true,
      "stateMutability": "payable",
      "type": "fallback"
    },
    {
      "anonymous": false,
      "inputs": [
        {
          "indexed": true,
          "name": "previousOwner",
          "type": "address"
        },
        {
          "indexed": true,
          "name": "newOwner",
          "type": "address"
        }
      ],
      "name": "OwnershipTransferred",
      "type": "event"
    }
  ],
  "bytecode": "0x6060604052600a60025567016345785d8a00006003556008600455610044670de0b6b3a7640000600454600a0a610255640100000000026113be176401000000009004565b600555635a214440600655635a71afc0600755600454600a0a63042c1d80026008557303c3cd159170ab0912cd00d7cacba79694a32127600960006101000a81548173ffffffffffffffffffffffffffffffffffffffff021916908373ffffffffffffffffffffffffffffffffffffffff16021790555073135b6526943e15fd68eaa05be73f24d641c332d8600a60006101000a81548173ffffffffffffffffffffffffffffffffffffffff021916908373ffffffffffffffffffffffffffffffffffffffff160217905550738a8ecfdf0eb6f8406c0ad344a6435d6baf3110e4600b60006101000a81548173ffffffffffffffffffffffffffffffffffffffff021916908373ffffffffffffffffffffffffffffffffffffffff160217905550680215c2d573eb06bda0600c5568010ae16ab9f5829b80600d5568024b231dff8286a6e0600e556000600f60006101000a81548160ff02191690831515021790555034156101b257600080fd5b60405160208061169d83398101604052808051906020019091905050336000806101000a81548173ffffffffffffffffffffffffffffffffffffffff021916908373ffffffffffffffffffffffffffffffffffffffff16021790555080600160006101000a81548173ffffffffffffffffffffffffffffffffffffffff021916908373ffffffffffffffffffffffffffffffffffffffff16021790555050610270565b600080828481151561026357fe5b0490508091505092915050565b61141e8061027f6000396000f300606060405260043610610133576000357c0100000000000000000000000000000000000000000000000000000000900463ffffffff168063038949221461013e578063100c6cfd1461015357806318160ddd1461017c5780631cbaee2d146101a557806322bb06d8146101ce578063313ce567146102235780634a3931491461024c57806355a373d6146102c5578063755e3e281461031a578063813d6c9a1461034757806385f2aef2146103705780638d859f3e146103c55780638da5cb5b146103ee578063ba2fa95714610443578063d439390c1461046c578063d6a9e9d114610495578063da682aeb146104be578063e28b2b7614610537578063e325fb4b1461058c578063ec8ac4d8146105b5578063ed338ff1146105e3578063f2fde38b1461060c578063f48c305414610645575b61013c3361068b565b005b341561014957600080fd5b610151610990565b005b341561015e57600080fd5b610166610ecf565b6040518082815260200191505060405180910390f35b341561018757600080fd5b61018f610ed5565b6040518082815260200191505060405180910390f35b34156101b057600080fd5b6101b8610edb565b6040518082815260200191505060405180910390f35b34156101d957600080fd5b6101e1610ee1565b604051808273ffffffffffffffffffffffffffffffffffffffff1673ffffffffffffffffffffffffffffffffffffffff16815260200191505060405180910390f35b341561022e57600080fd5b610236610f07565b6040518082815260200191505060405180910390f35b341561025757600080fd5b6102ab600480803573ffffffffffffffffffffffffffffffffffffffff1690602001909190803573ffffffffffffffffffffffffffffffffffffffff16906020019091908035906020019091905050610f0d565b604051808215151515815260200191505060405180910390f35b34156102d057600080fd5b6102d8610f32565b604051808273ffffffffffffffffffffffffffffffffffffffff1673ffffffffffffffffffffffffffffffffffffffff16815260200191505060405180910390f35b341561032557600080fd5b61032d610f58565b604051808215151515815260200191505060405180910390f35b341561035257600080fd5b61035a610f6b565b6040518082815260200191505060405180910390f35b341561037b57600080fd5b610383611040565b604051808273ffffffffffffffffffffffffffffffffffffffff1673ffffffffffffffffffffffffffffffffffffffff16815260200191505060405180910390f35b34156103d057600080fd5b6103d8611066565b6040518082815260200191505060405180910390f35b34156103f957600080fd5b61040161106c565b604051808273ffffffffffffffffffffffffffffffffffffffff1673ffffffffffffffffffffffffffffffffffffffff16815260200191505060405180910390f35b341561044e57600080fd5b610456611091565b6040518082815260200191505060405180910390f35b341561047757600080fd5b61047f611097565b6040518082815260200191505060405180910390f35b34156104a057600080fd5b6104a861109d565b6040518082815260200191505060405180910390f35b34156104c957600080fd5b61051d600480803573ffffffffffffffffffffffffffffffffffffffff1690602001909190803573ffffffffffffffffffffffffffffffffffffffff169060200190919080359060200190919050506110a3565b604051808215151515815260200191505060405180910390f35b341561054257600080fd5b61054a6110c8565b604051808273ffffffffffffffffffffffffffffffffffffffff1673ffffffffffffffffffffffffffffffffffffffff16815260200191505060405180910390f35b341561059757600080fd5b61059f6110ee565b6040518082815260200191505060405180910390f35b6105e1600480803573ffffffffffffffffffffffffffffffffffffffff1690602001909190505061068b565b005b34156105ee57600080fd5b6105f66111dc565b6040518082815260200191505060405180910390f35b341561061757600080fd5b610643600480803573ffffffffffffffffffffffffffffffffffffffff169060200190919050506111e2565b005b610671600480803573ffffffffffffffffffffffffffffffffffffffff16906020019091905050611337565b604051808215151515815260200191505060405180910390f35b600080600654610699611341565b101580156106af57506007546106ad611341565b105b15156106ba57600080fd5b60035434101515156106cb57600080fd5b6106e06002543461134990919063ffffffff16565b91506106f460646106ef610f6b565b61137c565b90506064811415156107395761073661070d606461139a565b6107286107198461139a565b8561134990919063ffffffff16565b6113be90919063ffffffff16565b91505b61074e600554836113be90919063ffffffff16565b915061076f600454600a0a6107616110ee565b61134990919063ffffffff16565b61082a83600160009054906101000a900473ffffffffffffffffffffffffffffffffffffffff1673ffffffffffffffffffffffffffffffffffffffff166318160ddd6000604051602001526040518163ffffffff167c0100000000000000000000000000000000000000000000000000000000028152600401602060405180830381600087803b151561080157600080fd5b6102c65a03f1151561081257600080fd5b5050506040518051905061137c90919063ffffffff16565b1115151561083757600080fd5b600160009054906101000a900473ffffffffffffffffffffffffffffffffffffffff1673ffffffffffffffffffffffffffffffffffffffff1663827f32c084846000604051602001526040518363ffffffff167c0100000000000000000000000000000000000000000000000000000000028152600401808373ffffffffffffffffffffffffffffffffffffffff1673ffffffffffffffffffffffffffffffffffffffff16815260200182815260200192505050602060405180830381600087803b151561090457600080fd5b6102c65a03f1151561091557600080fd5b50505060405180519050151561092a57600080fd5b6000809054906101000a900473ffffffffffffffffffffffffffffffffffffffff1673ffffffffffffffffffffffffffffffffffffffff166108fc349081150290604051600060405180830381858888f19350505050151561098b57600080fd5b505050565b6000806000806000809054906101000a900473ffffffffffffffffffffffffffffffffffffffff1673ffffffffffffffffffffffffffffffffffffffff163373ffffffffffffffffffffffffffffffffffffffff161415156109f157600080fd5b6007546109fc611341565b10151515610a0957600080fd5b600f60009054906101000a900460ff16151515610a2557600080fd5b6001600f60006101000a81548160ff021916908315150217905550610afd600160009054906101000a900473ffffffffffffffffffffffffffffffffffffffff1673ffffffffffffffffffffffffffffffffffffffff166318160ddd6000604051602001526040518163ffffffff167c0100000000000000000000000000000000000000000000000000000000028152600401602060405180830381600087803b1515610ad157600080fd5b6102c65a03f11515610ae257600080fd5b505050604051805190506008546113d990919063ffffffff16565b9350610b2f610b0c606461139a565b610b21600e548761134990919063ffffffff16565b6113be90919063ffffffff16565b9250610b61610b3e606461139a565b610b53600d548761134990919063ffffffff16565b6113be90919063ffffffff16565b9150610b8882610b7a85876113d990919063ffffffff16565b6113d990919063ffffffff16565b9050600160009054906101000a900473ffffffffffffffffffffffffffffffffffffffff1673ffffffffffffffffffffffffffffffffffffffff1663827f32c0600960009054906101000a900473ffffffffffffffffffffffffffffffffffffffff16836000604051602001526040518363ffffffff167c0100000000000000000000000000000000000000000000000000000000028152600401808373ffffffffffffffffffffffffffffffffffffffff1673ffffffffffffffffffffffffffffffffffffffff16815260200182815260200192505050602060405180830381600087803b1515610c7957600080fd5b6102c65a03f11515610c8a57600080fd5b505050604051805190501515610c9f57600080fd5b600160009054906101000a900473ffffffffffffffffffffffffffffffffffffffff1673ffffffffffffffffffffffffffffffffffffffff1663827f32c0600a60009054906101000a900473ffffffffffffffffffffffffffffffffffffffff16846000604051602001526040518363ffffffff167c0100000000000000000000000000000000000000000000000000000000028152600401808373ffffffffffffffffffffffffffffffffffffffff1673ffffffffffffffffffffffffffffffffffffffff16815260200182815260200192505050602060405180830381600087803b1515610d8e57600080fd5b6102c65a03f11515610d9f57600080fd5b505050604051805190501515610db457600080fd5b600160009054906101000a900473ffffffffffffffffffffffffffffffffffffffff1673ffffffffffffffffffffffffffffffffffffffff1663827f32c0600b60009054906101000a900473ffffffffffffffffffffffffffffffffffffffff16856000604051602001526040518363ffffffff167c0100000000000000000000000000000000000000000000000000000000028152600401808373ffffffffffffffffffffffffffffffffffffffff1673ffffffffffffffffffffffffffffffffffffffff16815260200182815260200192505050602060405180830381600087803b1515610ea357600080fd5b6102c65a03f11515610eb457600080fd5b505050604051805190501515610ec957600080fd5b50505050565b600e5481565b60085481565b60065481565b600a60009054906101000a900473ffffffffffffffffffffffffffffffffffffffff1681565b60045481565b6000600754610f1a611341565b10151515610f2757600080fd5b600190509392505050565b600160009054906101000a900473ffffffffffffffffffffffffffffffffffffffff1681565b600f60009054906101000a900460ff1681565b600080610f81610f79611341565b6006546113d9565b905062093a80811015610f97576019915061103c565b62127500811015610fab576016915061103c565b621baf80811015610fbf576014915061103c565b6224ea00811015610fd3576011915061103c565b622e2480811015610fe757600f915061103c565b62375f00811015610ffb57600a915061103c565b6240998081101561100f576007915061103c565b6249d400811015611023576005915061103c565b62530e80811015611037576002915061103c565b600091505b5090565b600960009054906101000a900473ffffffffffffffffffffffffffffffffffffffff1681565b60025481565b6000809054906101000a900473ffffffffffffffffffffffffffffffffffffffff1681565b600d5481565b60035481565b600c5481565b60006007546110b0611341565b101515156110bd57600080fd5b600190509392505050565b600b60009054906101000a900473ffffffffffffffffffffffffffffffffffffffff1681565b6000806111046110fc611341565b6006546113d9565b905062093a8081101561111c57620f424091506111d8565b6212750081101561113257622dc6c091506111d8565b621baf80811015611148576253ec6091506111d8565b6224ea0081101561115e576281b32091506111d8565b622e24808110156111745762b71b0091506111d8565b62375f0081101561118b57630103664091506111d8565b624099808110156111a25763016e360091506111d8565b6249d4008110156111b957630225510091506111d8565b62530e808110156111d0576303567e0091506111d8565b63042c1d8091505b5090565b60075481565b6000809054906101000a900473ffffffffffffffffffffffffffffffffffffffff1673ffffffffffffffffffffffffffffffffffffffff163373ffffffffffffffffffffffffffffffffffffffff1614151561123d57600080fd5b600073ffffffffffffffffffffffffffffffffffffffff168173ffffffffffffffffffffffffffffffffffffffff161415151561127957600080fd5b8073ffffffffffffffffffffffffffffffffffffffff166000809054906101000a900473ffffffffffffffffffffffffffffffffffffffff1673ffffffffffffffffffffffffffffffffffffffff167f8be0079c531659141344cd1fd0a4f28419497f9722a3daafe3b4186f6b6457e060405160405180910390a3806000806101000a81548173ffffffffffffffffffffffffffffffffffffffff021916908373ffffffffffffffffffffffffffffffffffffffff16021790555050565b6000809050919050565b600042905090565b6000808284029050600084148061136a575082848281151561136757fe5b04145b151561137257fe5b8091505092915050565b600080828401905083811015151561139057fe5b8091505092915050565b60006113b7670de0b6b3a76400008361134990919063ffffffff16565b9050919050565b60008082848115156113cc57fe5b0490508091505092915050565b60008282111515156113e757fe5b8183039050929150505600a165627a7a72305820959e10aa0ff797f39b3460f6f2de12c42718e9648d529dca9e66a6333688c44a0029",
  "source": "pragma solidity ^0.4.17;\n\nimport \"./MiniMeToken.sol\";\nimport 'zeppelin-solidity/contracts/ownership/Ownable.sol';\nimport 'zeppelin-solidity/contracts/math/SafeMath.sol';\n\ncontract RealLandCrowdSale is TokenController, Ownable {\n  using SafeMath for uint;\n\n  MiniMeToken public tokenContract;\n\n  uint public PRICE = 10; //1 Ether buys 10 RLD\n  uint public MIN_PURCHASE = 10**17; // 0.1 Ether\n  uint public decimals = 8;\n  uint etherRatio = SafeMath.div(1 ether, 10**decimals);\n\n  uint256 public saleStartTime = 1512129600;\n  uint256 public saleEndTime = 1517400000;\n\n  uint256 public totalSupply = 70000000 * 10**decimals;\n\n  address public team = 0x03c3CD159170Ab0912Cd00d7cACba79694A32127;\n  address public marketting = 0x135B6526943e15fD68EaA05be73f24d641c332D8;\n  address public ipoPlatform = 0x8A8eCFDf0eb6f8406C0AD344a6435D6BAf3110e4;\n  uint256 public teamPercentage = 38461538461538500000; //% * 10**18\n  uint256 public markettingPercentage = 19230769230769200000; //% * 10**18\n  uint256 public ipoPlatformPercentage = 42307692307692300000; //% * 10**18\n  bool public tokensAllocated = false;\n\n  modifier saleOpen {\n    require((getNow() >= saleStartTime) && (getNow() < saleEndTime));\n    _;\n  }\n\n  modifier saleClosed {\n    require(getNow() >= saleEndTime);\n    _;\n  }\n\n  modifier isMinimum {\n    require(msg.value >= MIN_PURCHASE);\n    _;\n  }\n\n  function RealLandCrowdSale(address _tokenContract) {\n    tokenContract = MiniMeToken(_tokenContract);\n  }\n\n  function () payable public {\n    buyTokens(msg.sender);\n  }\n\n  function buyTokens(address _recipient) payable public saleOpen isMinimum {\n\n    //Calculate tokens\n    uint tokens = msg.value.mul(PRICE);\n\n    //Add on any bonus\n    uint bonus = SafeMath.add(100, bonusPercentage());\n    if (bonus != 100) {\n      tokens = tokens.mul(percent(bonus)).div(percent(100));\n    }\n\n    tokens = tokens.div(etherRatio);\n\n    require(tokenContract.totalSupply().add(tokens) <= bonusCap().mul(10**decimals));\n\n    require(tokenContract.generateTokens(_recipient, tokens));\n\n    //Transfer Ether to owner\n    owner.transfer(msg.value);\n\n  }\n\n  function allocateTokens() public onlyOwner saleClosed {\n    require(!tokensAllocated);\n    tokensAllocated = true;\n    uint256 remainingTokens = totalSupply.sub(tokenContract.totalSupply());\n    uint256 ipoPlatformTokens = remainingTokens.mul(ipoPlatformPercentage).div(percent(100));\n    uint256 markettingTokens = remainingTokens.mul(markettingPercentage).div(percent(100));\n    uint256 teamTokens = remainingTokens.sub(ipoPlatformTokens).sub(markettingTokens);\n    require(tokenContract.generateTokens(team, teamTokens));\n    require(tokenContract.generateTokens(marketting, markettingTokens));\n    require(tokenContract.generateTokens(ipoPlatform, ipoPlatformTokens));\n  }\n\n  function bonusPercentage() public constant returns(uint256) {\n\n    uint elapsed = SafeMath.sub(getNow(), saleStartTime);\n\n    if (elapsed < 1 weeks) return 25;\n    if (elapsed < 2 weeks) return 22;\n    if (elapsed < 3 weeks) return 20;\n    if (elapsed < 4 weeks) return 17;\n    if (elapsed < 5 weeks) return 15;\n    if (elapsed < 6 weeks) return 10;\n    if (elapsed < 7 weeks) return 7;\n    if (elapsed < 8 weeks) return 5;\n    if (elapsed < 9 weeks) return 2;\n\n    return 0;\n\n  }\n\n  function bonusCap() public constant returns(uint256) {\n\n    uint elapsed = SafeMath.sub(getNow(), saleStartTime);\n\n    if (elapsed < 1 weeks) return 1000000;\n    if (elapsed < 2 weeks) return 3000000;\n    if (elapsed < 3 weeks) return 5500000;\n    if (elapsed < 4 weeks) return 8500000;\n    if (elapsed < 5 weeks) return 12000000;\n    if (elapsed < 6 weeks) return 17000000;\n    if (elapsed < 7 weeks) return 24000000;\n    if (elapsed < 8 weeks) return 36000000;\n    if (elapsed < 9 weeks) return 56000000;\n\n    return 70000000;\n\n  }\n\n  function percent(uint256 p) internal returns (uint256) {\n    return p.mul(10**18);\n  }\n\n  //Function is mocked for tests\n  function getNow() internal constant returns (uint256) {\n    return now;\n  }\n\n  //TokenController implementation\n\n  /// @notice Called when `_owner` sends ether to the MiniMe Token contract\n  /// @param _owner The address that sent the ether to create tokens\n  /// @return True if the ether is accepted, false if it throws\n  function proxyPayment(address _owner) payable public returns(bool) {\n    return false;\n  }\n\n  /// @notice Notifies the controller about a token transfer allowing the\n  ///  controller to react if desired\n  /// @param _from The origin of the transfer\n  /// @param _to The destination of the transfer\n  /// @param _amount The amount of the transfer\n  /// @return False if the controller does not authorize the transfer\n  function onTransfer(address _from, address _to, uint _amount) public saleClosed returns(bool) {\n    return true;\n  }\n\n  /// @notice Notifies the controller about an approval allowing the\n  ///  controller to react if desired\n  /// @param _owner The address that calls `approve()`\n  /// @param _spender The spender in the `approve()` call\n  /// @param _amount The amount in the `approve()` call\n  /// @return False if the controller does not authorize the approval\n  function onApprove(address _owner, address _spender, uint _amount) public saleClosed returns(bool) {\n    return true;\n  }\n\n}\n",
  "sourcePath": "/Users/adamdossa/Development/Ethereum/realland/contracts/RealLandCrowdSale.sol",
  "compiler": {
    "name": "solc",
    "version": "0.4.18+commit.9cf6e910.Emscripten.clang"
  },
  "schemaVersion": "1.0.1",
  "updatedAt": "2017-11-23T17:34:56.674Z"
}