{
  "contractName": "RealLandCrowdSaleMock",
  "abi": [
    {
      "constant": false,
      "inputs": [],
      "name": "allocateTokens",
      "outputs": [],
      "payable": false,
      "stateMutability": "nonpayable",
      "type": "function"
    },
    {
      "constant": true,
      "inputs": [],
      "name": "ipoPlatformPercentage",
      "outputs": [
        {
          "name": "",
          "type": "uint256"
        }
      ],
      "payable": false,
      "stateMutability": "view",
      "type": "function"
    },
    {
      "constant": true,
      "inputs": [],
      "name": "totalSupply",
      "outputs": [
        {
          "name": "",
          "type": "uint256"
        }
      ],
      "payable": false,
      "stateMutability": "view",
      "type": "function"
    },
    {
      "constant": true,
      "inputs": [],
      "name": "saleStartTime",
      "outputs": [
        {
          "name": "",
          "type": "uint256"
        }
      ],
      "payable": false,
      "stateMutability": "view",
      "type": "function"
    },
    {
      "constant": true,
      "inputs": [],
      "name": "marketting",
      "outputs": [
        {
          "name": "",
          "type": "address"
        }
      ],
      "payable": false,
      "stateMutability": "view",
      "type": "function"
    },
    {
      "constant": true,
      "inputs": [],
      "name": "decimals",
      "outputs": [
        {
          "name": "",
          "type": "uint256"
        }
      ],
      "payable": false,
      "stateMutability": "view",
      "type": "function"
    },
    {
      "constant": false,
      "inputs": [
        {
          "name": "_from",
          "type": "address"
        },
        {
          "name": "_to",
          "type": "address"
        },
        {
          "name": "_amount",
          "type": "uint256"
        }
      ],
      "name": "onTransfer",
      "outputs": [
        {
          "name": "",
          "type": "bool"
        }
      ],
      "payable": false,
      "stateMutability": "nonpayable",
      "type": "function"
    },
    {
      "constant": true,
      "inputs": [],
      "name": "tokenContract",
      "outputs": [
        {
          "name": "",
          "type": "address"
        }
      ],
      "payable": false,
      "stateMutability": "view",
      "type": "function"
    },
    {
      "constant": true,
      "inputs": [],
      "name": "tokensAllocated",
      "outputs": [
        {
          "name": "",
          "type": "bool"
        }
      ],
      "payable": false,
      "stateMutability": "view",
      "type": "function"
    },
    {
      "constant": true,
      "inputs": [],
      "name": "bonusPercentage",
      "outputs": [
        {
          "name": "",
          "type": "uint256"
        }
      ],
      "payable": false,
      "stateMutability": "view",
      "type": "function"
    },
    {
      "constant": true,
      "inputs": [],
      "name": "team",
      "outputs": [
        {
          "name": "",
          "type": "address"
        }
      ],
      "payable": false,
      "stateMutability": "view",
      "type": "function"
    },
    {
      "constant": true,
      "inputs": [],
      "name": "PRICE",
      "outputs": [
        {
          "name": "",
          "type": "uint256"
        }
      ],
      "payable": false,
      "stateMutability": "view",
      "type": "function"
    },
    {
      "constant": true,
      "inputs": [],
      "name": "owner",
      "outputs": [
        {
          "name": "",
          "type": "address"
        }
      ],
      "payable": false,
      "stateMutability": "view",
      "type": "function"
    },
    {
      "constant": false,
      "inputs": [
        {
          "name": "_b",
          "type": "uint256"
        }
      ],
      "name": "setMockedNow",
      "outputs": [],
      "payable": false,
      "stateMutability": "nonpayable",
      "type": "function"
    },
    {
      "constant": true,
      "inputs": [],
      "name": "markettingPercentage",
      "outputs": [
        {
          "name": "",
          "type": "uint256"
        }
      ],
      "payable": false,
      "stateMutability": "view",
      "type": "function"
    },
    {
      "constant": true,
      "inputs": [],
      "name": "MIN_PURCHASE",
      "outputs": [
        {
          "name": "",
          "type": "uint256"
        }
      ],
      "payable": false,
      "stateMutability": "view",
      "type": "function"
    },
    {
      "constant": true,
      "inputs": [],
      "name": "teamPercentage",
      "outputs": [
        {
          "name": "",
          "type": "uint256"
        }
      ],
      "payable": false,
      "stateMutability": "view",
      "type": "function"
    },
    {
      "constant": false,
      "inputs": [
        {
          "name": "_owner",
          "type": "address"
        },
        {
          "name": "_spender",
          "type": "address"
        },
        {
          "name": "_amount",
          "type": "uint256"
        }
      ],
      "name": "onApprove",
      "outputs": [
        {
          "name": "",
          "type": "bool"
        }
      ],
      "payable": false,
      "stateMutability": "nonpayable",
      "type": "function"
    },
    {
      "constant": true,
      "inputs": [],
      "name": "ipoPlatform",
      "outputs": [
        {
          "name": "",
          "type": "address"
        }
      ],
      "payable": false,
      "stateMutability": "view",
      "type": "function"
    },
    {
      "constant": true,
      "inputs": [],
      "name": "bonusCap",
      "outputs": [
        {
          "name": "",
          "type": "uint256"
        }
      ],
      "payable": false,
      "stateMutability": "view",
      "type": "function"
    },
    {
      "constant": false,
      "inputs": [
        {
          "name": "_recipient",
          "type": "address"
        }
      ],
      "name": "buyTokens",
      "outputs": [],
      "payable": true,
      "stateMutability": "payable",
      "type": "function"
    },
    {
      "constant": true,
      "inputs": [],
      "name": "saleEndTime",
      "outputs": [
        {
          "name": "",
          "type": "uint256"
        }
      ],
      "payable": false,
      "stateMutability": "view",
      "type": "function"
    },
    {
      "constant": false,
      "inputs": [
        {
          "name": "newOwner",
          "type": "address"
        }
      ],
      "name": "transferOwnership",
      "outputs": [],
      "payable": false,
      "stateMutability": "nonpayable",
      "type": "function"
    },
    {
      "constant": false,
      "inputs": [
        {
          "name": "_owner",
          "type": "address"
        }
      ],
      "name": "proxyPayment",
      "outputs": [
        {
          "name": "",
          "type": "bool"
        }
      ],
      "payable": true,
      "stateMutability": "payable",
      "type": "function"
    },
    {
      "inputs": [
        {
          "name": "_tokenContract",
          "type": "address"
        }
      ],
      "payable": false,
      "stateMutability": "nonpayable",
      "type": "constructor"
    },
    {
      "payable": true,
      "stateMutability": "payable",
      "type": "fallback"
    },
    {
      "anonymous": false,
      "inputs": [
        {
          "indexed": false,
          "name": "_now",
          "type": "uint256"
        }
      ],
      "name": "MockNow",
      "type": "event"
    },
    {
      "anonymous": false,
      "inputs": [
        {
          "indexed": true,
          "name": "previousOwner",
          "type": "address"
        },
        {
          "indexed": true,
          "name": "newOwner",
          "type": "address"
        }
      ],
      "name": "OwnershipTransferred",
      "type": "event"
    }
  ],
  "bytecode": "0x6060604052600a60025567016345785d8a00006003556008600455610044670de0b6b3a7640000600454600a0a61025c6401000000000261142f176401000000009004565b600555635a214440600655635a71afc0600755600454600a0a63042c1d80026008557303c3cd159170ab0912cd00d7cacba79694a32127600960006101000a81548173ffffffffffffffffffffffffffffffffffffffff021916908373ffffffffffffffffffffffffffffffffffffffff16021790555073135b6526943e15fd68eaa05be73f24d641c332d8600a60006101000a81548173ffffffffffffffffffffffffffffffffffffffff021916908373ffffffffffffffffffffffffffffffffffffffff160217905550738a8ecfdf0eb6f8406c0ad344a6435d6baf3110e4600b60006101000a81548173ffffffffffffffffffffffffffffffffffffffff021916908373ffffffffffffffffffffffffffffffffffffffff160217905550680215c2d573eb06bda0600c5568010ae16ab9f5829b80600d5568024b231dff8286a6e0600e556000600f60006101000a81548160ff021916908315150217905550600160105534156101b757600080fd5b6040516020806117158339810160405280805190602001909190505080336000806101000a81548173ffffffffffffffffffffffffffffffffffffffff021916908373ffffffffffffffffffffffffffffffffffffffff16021790555080600160006101000a81548173ffffffffffffffffffffffffffffffffffffffff021916908373ffffffffffffffffffffffffffffffffffffffff1602179055505050610277565b600080828481151561026a57fe5b0490508091505092915050565b61148f806102866000396000f30060606040526004361061013e576000357c0100000000000000000000000000000000000000000000000000000000900463ffffffff1680630389492214610149578063100c6cfd1461015e57806318160ddd146101875780631cbaee2d146101b057806322bb06d8146101d9578063313ce5671461022e5780634a3931491461025757806355a373d6146102d0578063755e3e2814610325578063813d6c9a1461035257806385f2aef21461037b5780638d859f3e146103d05780638da5cb5b146103f9578063911058df1461044e578063ba2fa95714610471578063d439390c1461049a578063d6a9e9d1146104c3578063da682aeb146104ec578063e28b2b7614610565578063e325fb4b146105ba578063ec8ac4d8146105e3578063ed338ff114610611578063f2fde38b1461063a578063f48c305414610673575b610147336106b9565b005b341561015457600080fd5b61015c6109be565b005b341561016957600080fd5b610171610efd565b6040518082815260200191505060405180910390f35b341561019257600080fd5b61019a610f03565b6040518082815260200191505060405180910390f35b34156101bb57600080fd5b6101c3610f09565b6040518082815260200191505060405180910390f35b34156101e457600080fd5b6101ec610f0f565b604051808273ffffffffffffffffffffffffffffffffffffffff1673ffffffffffffffffffffffffffffffffffffffff16815260200191505060405180910390f35b341561023957600080fd5b610241610f35565b6040518082815260200191505060405180910390f35b341561026257600080fd5b6102b6600480803573ffffffffffffffffffffffffffffffffffffffff1690602001909190803573ffffffffffffffffffffffffffffffffffffffff16906020019091908035906020019091905050610f3b565b604051808215151515815260200191505060405180910390f35b34156102db57600080fd5b6102e3610f60565b604051808273ffffffffffffffffffffffffffffffffffffffff1673ffffffffffffffffffffffffffffffffffffffff16815260200191505060405180910390f35b341561033057600080fd5b610338610f86565b604051808215151515815260200191505060405180910390f35b341561035d57600080fd5b610365610f99565b6040518082815260200191505060405180910390f35b341561038657600080fd5b61038e61106e565b604051808273ffffffffffffffffffffffffffffffffffffffff1673ffffffffffffffffffffffffffffffffffffffff16815260200191505060405180910390f35b34156103db57600080fd5b6103e3611094565b6040518082815260200191505060405180910390f35b341561040457600080fd5b61040c61109a565b604051808273ffffffffffffffffffffffffffffffffffffffff1673ffffffffffffffffffffffffffffffffffffffff16815260200191505060405180910390f35b341561045957600080fd5b61046f60048080359060200190919050506110bf565b005b341561047c57600080fd5b610484611100565b6040518082815260200191505060405180910390f35b34156104a557600080fd5b6104ad611106565b6040518082815260200191505060405180910390f35b34156104ce57600080fd5b6104d661110c565b6040518082815260200191505060405180910390f35b34156104f757600080fd5b61054b600480803573ffffffffffffffffffffffffffffffffffffffff1690602001909190803573ffffffffffffffffffffffffffffffffffffffff16906020019091908035906020019091905050611112565b604051808215151515815260200191505060405180910390f35b341561057057600080fd5b610578611137565b604051808273ffffffffffffffffffffffffffffffffffffffff1673ffffffffffffffffffffffffffffffffffffffff16815260200191505060405180910390f35b34156105c557600080fd5b6105cd61115d565b6040518082815260200191505060405180910390f35b61060f600480803573ffffffffffffffffffffffffffffffffffffffff169060200190919050506106b9565b005b341561061c57600080fd5b61062461124b565b6040518082815260200191505060405180910390f35b341561064557600080fd5b610671600480803573ffffffffffffffffffffffffffffffffffffffff16906020019091905050611251565b005b61069f600480803573ffffffffffffffffffffffffffffffffffffffff169060200190919050506113a6565b604051808215151515815260200191505060405180910390f35b6000806006546106c76113b0565b101580156106dd57506007546106db6113b0565b105b15156106e857600080fd5b60035434101515156106f957600080fd5b61070e600254346113ba90919063ffffffff16565b9150610722606461071d610f99565b6113ed565b90506064811415156107675761076461073b606461140b565b6107566107478461140b565b856113ba90919063ffffffff16565b61142f90919063ffffffff16565b91505b61077c6005548361142f90919063ffffffff16565b915061079d600454600a0a61078f61115d565b6113ba90919063ffffffff16565b61085883600160009054906101000a900473ffffffffffffffffffffffffffffffffffffffff1673ffffffffffffffffffffffffffffffffffffffff166318160ddd6000604051602001526040518163ffffffff167c0100000000000000000000000000000000000000000000000000000000028152600401602060405180830381600087803b151561082f57600080fd5b6102c65a03f1151561084057600080fd5b505050604051805190506113ed90919063ffffffff16565b1115151561086557600080fd5b600160009054906101000a900473ffffffffffffffffffffffffffffffffffffffff1673ffffffffffffffffffffffffffffffffffffffff1663827f32c084846000604051602001526040518363ffffffff167c0100000000000000000000000000000000000000000000000000000000028152600401808373ffffffffffffffffffffffffffffffffffffffff1673ffffffffffffffffffffffffffffffffffffffff16815260200182815260200192505050602060405180830381600087803b151561093257600080fd5b6102c65a03f1151561094357600080fd5b50505060405180519050151561095857600080fd5b6000809054906101000a900473ffffffffffffffffffffffffffffffffffffffff1673ffffffffffffffffffffffffffffffffffffffff166108fc349081150290604051600060405180830381858888f1935050505015156109b957600080fd5b505050565b6000806000806000809054906101000a900473ffffffffffffffffffffffffffffffffffffffff1673ffffffffffffffffffffffffffffffffffffffff163373ffffffffffffffffffffffffffffffffffffffff16141515610a1f57600080fd5b600754610a2a6113b0565b10151515610a3757600080fd5b600f60009054906101000a900460ff16151515610a5357600080fd5b6001600f60006101000a81548160ff021916908315150217905550610b2b600160009054906101000a900473ffffffffffffffffffffffffffffffffffffffff1673ffffffffffffffffffffffffffffffffffffffff166318160ddd6000604051602001526040518163ffffffff167c0100000000000000000000000000000000000000000000000000000000028152600401602060405180830381600087803b1515610aff57600080fd5b6102c65a03f11515610b1057600080fd5b5050506040518051905060085461144a90919063ffffffff16565b9350610b5d610b3a606461140b565b610b4f600e54876113ba90919063ffffffff16565b61142f90919063ffffffff16565b9250610b8f610b6c606461140b565b610b81600d54876113ba90919063ffffffff16565b61142f90919063ffffffff16565b9150610bb682610ba8858761144a90919063ffffffff16565b61144a90919063ffffffff16565b9050600160009054906101000a900473ffffffffffffffffffffffffffffffffffffffff1673ffffffffffffffffffffffffffffffffffffffff1663827f32c0600960009054906101000a900473ffffffffffffffffffffffffffffffffffffffff16836000604051602001526040518363ffffffff167c0100000000000000000000000000000000000000000000000000000000028152600401808373ffffffffffffffffffffffffffffffffffffffff1673ffffffffffffffffffffffffffffffffffffffff16815260200182815260200192505050602060405180830381600087803b1515610ca757600080fd5b6102c65a03f11515610cb857600080fd5b505050604051805190501515610ccd57600080fd5b600160009054906101000a900473ffffffffffffffffffffffffffffffffffffffff1673ffffffffffffffffffffffffffffffffffffffff1663827f32c0600a60009054906101000a900473ffffffffffffffffffffffffffffffffffffffff16846000604051602001526040518363ffffffff167c0100000000000000000000000000000000000000000000000000000000028152600401808373ffffffffffffffffffffffffffffffffffffffff1673ffffffffffffffffffffffffffffffffffffffff16815260200182815260200192505050602060405180830381600087803b1515610dbc57600080fd5b6102c65a03f11515610dcd57600080fd5b505050604051805190501515610de257600080fd5b600160009054906101000a900473ffffffffffffffffffffffffffffffffffffffff1673ffffffffffffffffffffffffffffffffffffffff1663827f32c0600b60009054906101000a900473ffffffffffffffffffffffffffffffffffffffff16856000604051602001526040518363ffffffff167c0100000000000000000000000000000000000000000000000000000000028152600401808373ffffffffffffffffffffffffffffffffffffffff1673ffffffffffffffffffffffffffffffffffffffff16815260200182815260200192505050602060405180830381600087803b1515610ed157600080fd5b6102c65a03f11515610ee257600080fd5b505050604051805190501515610ef757600080fd5b50505050565b600e5481565b60085481565b60065481565b600a60009054906101000a900473ffffffffffffffffffffffffffffffffffffffff1681565b60045481565b6000600754610f486113b0565b10151515610f5557600080fd5b600190509392505050565b600160009054906101000a900473ffffffffffffffffffffffffffffffffffffffff1681565b600f60009054906101000a900460ff1681565b600080610faf610fa76113b0565b60065461144a565b905062093a80811015610fc5576019915061106a565b62127500811015610fd9576016915061106a565b621baf80811015610fed576014915061106a565b6224ea00811015611001576011915061106a565b622e248081101561101557600f915061106a565b62375f0081101561102957600a915061106a565b6240998081101561103d576007915061106a565b6249d400811015611051576005915061106a565b62530e80811015611065576002915061106a565b600091505b5090565b600960009054906101000a900473ffffffffffffffffffffffffffffffffffffffff1681565b60025481565b6000809054906101000a900473ffffffffffffffffffffffffffffffffffffffff1681565b806010819055507ff54bf4ed226aa1df732802a8bd56e85755aab0a0ef7c2fbf204cf0de0765f073816040518082815260200191505060405180910390a150565b600d5481565b60035481565b600c5481565b600060075461111f6113b0565b1015151561112c57600080fd5b600190509392505050565b600b60009054906101000a900473ffffffffffffffffffffffffffffffffffffffff1681565b60008061117361116b6113b0565b60065461144a565b905062093a8081101561118b57620f42409150611247565b621275008110156111a157622dc6c09150611247565b621baf808110156111b7576253ec609150611247565b6224ea008110156111cd576281b3209150611247565b622e24808110156111e35762b71b009150611247565b62375f008110156111fa5763010366409150611247565b624099808110156112115763016e36009150611247565b6249d4008110156112285763022551009150611247565b62530e8081101561123f576303567e009150611247565b63042c1d8091505b5090565b60075481565b6000809054906101000a900473ffffffffffffffffffffffffffffffffffffffff1673ffffffffffffffffffffffffffffffffffffffff163373ffffffffffffffffffffffffffffffffffffffff161415156112ac57600080fd5b600073ffffffffffffffffffffffffffffffffffffffff168173ffffffffffffffffffffffffffffffffffffffff16141515156112e857600080fd5b8073ffffffffffffffffffffffffffffffffffffffff166000809054906101000a900473ffffffffffffffffffffffffffffffffffffffff1673ffffffffffffffffffffffffffffffffffffffff167f8be0079c531659141344cd1fd0a4f28419497f9722a3daafe3b4186f6b6457e060405160405180910390a3806000806101000a81548173ffffffffffffffffffffffffffffffffffffffff021916908373ffffffffffffffffffffffffffffffffffffffff16021790555050565b6000809050919050565b6000601054905090565b600080828402905060008414806113db57508284828115156113d857fe5b04145b15156113e357fe5b8091505092915050565b600080828401905083811015151561140157fe5b8091505092915050565b6000611428670de0b6b3a7640000836113ba90919063ffffffff16565b9050919050565b600080828481151561143d57fe5b0490508091505092915050565b600082821115151561145857fe5b8183039050929150505600a165627a7a72305820a58567ac6f68428c864e50483f3548b5e37422bc20702c614cc23532e30f11360029",
  "source": "pragma solidity ^0.4.15;\n\nimport '../RealLandCrowdSale.sol';\n\ncontract RealLandCrowdSaleMock is RealLandCrowdSale {\n\n  event MockNow(uint _now);\n\n  uint mock_now = 1;\n\n  function RealLandCrowdSaleMock(address _tokenContract)\n    RealLandCrowdSale(_tokenContract)\n  {}\n\n  function getNow() internal constant returns (uint) {\n      return mock_now;\n  }\n\n  function setMockedNow(uint _b) public {\n      mock_now = _b;\n      MockNow(_b);\n  }\n\n}\n",
  "sourcePath": "/Users/adamdossa/Development/Ethereum/realland/contracts/mock/RealLandCrowdSaleMock.sol",
  "compiler": {
    "name": "solc",
    "version": "0.4.18+commit.9cf6e910.Emscripten.clang"
  },
  "schemaVersion": "1.0.1",
  "updatedAt": "2017-11-23T17:34:57.423Z"
}